:020000020000FC
:040000000C94240038
:040010000C94420505
:040018000C948405BB
:04002C000C94DB0550
:040034000C94C7055C
:100044000C9469000FE514E00DBF1EBF0EE705BD5B
:1000540003E003BD00E409BF08E400B9002701B9C7
:1000640008E90AB906E800BD0FE911E010BD09B9B5
:1000740000E607B907E806B9B89AC09ABB9A929AFB
:10008400939A949A8F9A0CEF04BB0EE30ABB78946C
:10009400EE2444278827002411242224239400E0FA
:1000A400302E602E02E0402E01E0702E0CE0502E27
:1000B4000027AAEBB0E00C93CBEBD0E008830C94C0
:1000C400860606B701FDFDCF05EA06BF08950F9326
:1000D4001F9351B15C7F583031F0503121F05831C9
:1000E40011F0583219F40E94920017C0503519F4D7
:1000F4000E94A30012C0503421F4FA9405EC06BF08
:100104000CC0583519F40E94A30007C0583319F4E1
:1001140005EA06BF02C004E006BF1F910F911895BF
:10012400662361F0C0E6D0E00027CF0DD01F088120
:1001340003B905E806BFF3946A9502C004E906BF53
:100144000895662321F413B104E906BF09C06130A0
:1001540021F413B105E806BF03C013B105EC06BFD3
:10016400C0E7D0E00027CF0DD01F18836A95F39421
:100174000895002705BB62E0FF24C0E6D0E000ED4F
:100184000993002708830E9463000E94D40068E05A
:10019400FF2401EDC0E6D0E008830E9463000E94C2
:1001A400D400089506B700FDFDCF089544FF0C94D4
:1001B400420142FF0C94EA00A9EBB0E00C910395D4
:1001C4000A3F18F04D7FC09A0027A9EBB0E00C93CA
:1001D4004F7E0E94BB000E947D0677270027A0E780
:1001E400B0E0A70FB01F0C91102F0F70107F129565
:1001F400733024F4E2EAF5E00C940B01733021F03F
:10020400E8EDF5E00C940B01000F102F1395E8EBCB
:10021400F5E0AE2FBF2F2227372F330F330FC0E85F
:10022400D0E0C30FD21F000FE00FF21F0E94430162
:10023400EA2FFB2F2227110FE10FF21F0E94430127
:100244007395763014F40C94F000A0E8B0E0C8E99B
:10025400D0E0F89477270E946B017031E0F3002717
:1002640014E0C10FD01F0E946B017431E0F300272A
:1002740018E0C11BD00B0E946B017831E0F3789435
:10028400089543FF0C944C01723011F0743011F452
:10029400103041F041FF0C9458017E1539F442FFAF
:1002A4000C945801222733270C9461012491319630
:1002B4003491743021F443FD0C9461012068299336
:1002C400399343FD0C94690148600C946A01477F9B
:1002D40008950D9109937395089544FF0C94420178
:1002E4004F7E0E9478010E941B02089545FF0C94E2
:1002F400DA0147FD0C94ED010394112704E0111673
:1003040031F4001621F40E9474020C948E010CE363
:10031400001611F40024139446FD0C94A601141441
:1003240079F4031469F40E947802002411244064CF
:10033400251441F44F7D2224239440680C94080230
:100344000C94F4010C94FE01171451F40614C9F42E
:100354000E947802112400244F7B23940C94F4010E
:10036400662079F4072D0A951016B9F406E30016F1
:10037400D9F008E30016C1F00AE30016A9F00C94C2
:10038400CF01062D0250001679F00250001661F0DC
:100394000250001649F00C94CF0104E0001660F1FD
:1003A4000E9474020C94FE010E947E020C94FE01D1
:1003B40046FD0C94E1010E9474020C94E80147FF8D
:1003C4000C94E7014F770C94E8014F7B41FF0C94A8
:1003D40008020C9412020E94740246FF0C94F40169
:1003E4000C94FE01A0EBB0E00D921D922D925D9253
:1003F4003D924C920C941A02A0EBB0E00D921D9227
:100404002D925D926D927C920C941A02A0EBB0E056
:100414000D921D922D925D923D924C920C941A0273
:10042400A0EBB0E03D924D925D925D926D927C9214
:10043400089577271127A0EBB0E0A70FB11F0C9107
:100444000A3020F013950A500C942202733020F4E1
:10045400E2EAF5E00C943002E8EDF5E0AE2FBF2FB0
:100464003327272F220F220FC8E9D0E0C20FD31F52
:10047400000FE00FF31F43FF0C944602703021F08D
:10048400743011F0103041F041FF0C9452027E158B
:1004940039F442FF0C945202222733270C945F0252
:1004A40025913491723019F4277F0C945F027530D2
:1004B40021F443FD0C945F0220682993399343FD92
:1004C4000C946D024860EA2FFB2F110F2227E10FD5
:1004D400F21F0C943D02477F7395763010F40C9410
:1004E4001C020895C09A002703BF0895C0980BE129
:1004F40003BF0EE10CBF0895C0980CE103BF0DE4E7
:100504000CBF089563E00027C0E6D0E0CF0DD01FF4
:1005140000ED09930F2D0993012F08830E946300B6
:100524000E94D4000895012F1F70007F02950023BC
:1005340021F0165F0A950C94990208950027143649
:1005440040F41A3020F01A5003950C94A30202953B
:10055400102B0895C0E6D0E000ED099300E0099364
:1005640000E0099300E0099306E1099307E0099389
:1005740001E2099307E0099309E1088369E0FF2494
:100584000E9463000E94D40008950E94BB00A0E76B
:10059400B0E00C91003811F40E94AC020895FF0BF6
:1005A400090BEF0DCF0F1D0FDF07FF070F0BFF0F19
:1005B400DF0F0000000000003190034B20A0722FD9
:1005C4003190514320A020E420A0034B31925143A9
:1005D4001180722F534B020851AB52AB02E852E325
:1005E40053E3020B53EB52EB000097FF0C944903C7
:1005F400092F93700C7106950695102F16950170AE
:10060400A6EBB0E02C91220F022B0C93C7EBD0E0A9
:10061400A991B881003039F41196C7EBD0E0A993C1
:10062400B8830C942B030F3FA1F4A03021F4B03015
:1006340011F40C942B03B23024F40E944A030C945A
:1006440025030E949603AA27BB27C7EBD0E0A993F2
:10065400B883133089F49030D1F0913029F49F7B22
:100664000E94C4030C943B03933089F490640E9469
:10067400C40399270C944903113019F493E00C94A2
:100684004903123019F491E00C94490392E008955F
:100694000F930027A9EBB0E00C930F9140FD0C944D
:1006A4006F0341FF0C94950323E0E21618F4E394DE
:1006B4000C94950325E0E21621F424E0E22E0C9438
:1006C400950324E0E21621F025E0E22E0C94950334
:1006D400EE244D7FC09A0C94950341FF0C94800343
:1006E400E39426E0E21630F423E0E216E1F4E39426
:1006F4000C949503EE244D7F0C94950345FD0C94C6
:100704008E03406247FF0E9478024F730024112435
:10071400222423940C94950347FF0C9494034F775D
:100724000C949503406808950F930027A9EBB0E05B
:100734000C930F9140FD0C94AE0341FD0C94A70360
:100744004260EE24C0980C94C3030EE705BD4160DB
:100754004D71C09A0C94C30341FF0C94B6030EE789
:1007640005BD4C710C94C30345FD0C94BE0342605B
:100774004F71EE240C94C3034D71002411242224E0
:10078400239408950F930027A9EBB0E00C930F91E5
:1007940040FD0C94B40441FF0C9433050027A0E7FA
:1007A400B0E0AE0DB01F1C91E01631F41127FF2408
:1007B4000E9484020C94330501E0E016C9F40E94FF
:1007C400950296FD0C94EE03103019F41BE30C947F
:1007D400F2031A950C94F20313951C3308F01127B5
:1007E4000E94A00201E0F02E0E9484020C943305C2
:1007F40002E0E016C9F40E94950296FD0C940A04E6
:10080400103019F417E10C940E041A950C940E048C
:100814001395183108F011270E94A00202E0F02E6F
:100824000E9484020C94330503E0E016A9F496FDBB
:100834000C942404113019F417E00C9428041A952C
:100844000C9428041395183008F011E003E0F02EFE
:100854000E9484020C94330504E0E01611F00C9419
:100864009204A0E7B0E014961D912D913C910E9452
:100874009502213061F0233051F0253041F02730CA
:1008840031F0283021F0203111F0223189F096FD29
:100894000C945404113019F41FE10C948A041A9531
:1008A4000C948A041395103298F111E00C948A0484
:1008B4002230F9F496FD0C946D04113049F4337030
:1008C400303019F41CE10C948A041DE10C948A0460
:1008D4001A950C948A0413953370303029F41D3121
:1008E400B8F011E00C948A041E3190F011E00C94DD
:1008F4008A0496FD0C948604113019F41EE10C94BC
:100904008A041A950C948A0413951F3108F011E097
:100914000E94A00204E0F02E0E9484020C9433058D
:1009240005E0E01611F00C943305A0E7B0E015964D
:100934001C910E94950296FD0C94A804113019F4A0
:100944001CE00C94AC041A950C94AC0413951D3063
:1009540008F011E00E94A00205E0F02E0E9484023B
:100964000C94330541FF0C94330500E0E016B9F410
:1009740096FD0C94C7040AE0301620F402E3302EEE
:100984000C943305301A0C9433050AE0300E0CE352
:10099400301610F40C94330533240C94330501E021
:1009A400E016A9F496FD0C94E004442021F403E637
:1009B400402E0C9433054A940C943305439404E676
:1009C400401610F40C94330544240C94330502E0CF
:1009D400E016B9F496FD0C94F90401E0501621F4E4
:1009E40003E6502E0C9433055A940C943305539417
:1009F40004E6501610F40C94330501E0502E0C94C8
:100A0400330504E0E016B9F496FD0C9413050AE0EE
:100A1400601620F402E3602E0C943305601A0C94E3
:100A240033050AE0600E0CE3601610F40C943305F1
:100A340066240C94330505E0E01699F496FD0C94B5
:100A44002C05772021F403E6702E0C9433057A9458
:100A54000C943305739404E6701610F40C94330567
:100A64007724089509E00EBD0FE910E00ABD1BBD0F
:100A740009B7006109BFCC24089500270EBD08956D
:100A84000F931F930FB70F938395803818F04B7F04
:100A94000C944D05446040FF0C94590541FD0C94A1
:100AA4005905843F48F0882740610C945E05082F5F
:100AB4000E730E3309F4406100B30C710068937037
:100AC400902B0F910FBF1F910F91189506E0D394AF
:100AD400D01608F0DD241D2D110F0027C8E9D0E041
:100AE400C10FD01F99908880145F0027C8E9D0E017
:100AF400C10FD01FB990A88005BBD99ACC240E94FD
:100B040034050895EF93FF930F931F930FB70F933B
:100B1400C5FC12C0C0FC0EC087FEDA9887FCDA9AC6
:100B2400A7FEDD98A7FCDD9A991C881CBB1CAA1C97
:100B3400DB981AC0DB9A18C0C1FC08C0C0FC04C012
:100B4400DB98DA98DD9810C0DC9A0EC0C0FC02C0B5
:100B5400DC980AC0D9980027E0E8FBE0ED0DF01F0F
:100B6400049105BB0E943F05C3940F910FBF1F91D1
:100B74000F91FF91EF91189508950895040810209E
:100B840040805D9BFECF0CB908950F931F930FB760
:100B94000F93773048F41127A0E7B0E0A70FB11FF7
:100BA4000C910E94C30573950F910FBF1F910F9174
:100BB40018952F930F931F93AF93BF93CF93DF9306
:100BC4000FB70F930CB10E94C3052227AAEBB0E024
:100BD4001C91CCEBD0E0C10FD21F088313951F7377
:100BE4001C930F910FBFDF91CF91BF91AF911F91D4
:100BF4000F912F911895AAEBB0E01C91CBEBD0E0AC
:100C04000881202F312F321B3F73393010F40C949C
:100C140032063327ACEBB0E0A00FB31F2D912C3C70
:100C240029F003950F7308830C94FD05CCEFD0E0F5
:100C340011273D913993230F13951730D0F33C912D
:100C4400231739F003950F73CBEBD0E008830C9492
:100C5400FD05075F0F73CBEBD0E008830E943306DA
:100C640008951127A0E6B0E0CCEFD0E000ED0D939D
:100C740000270D9309910D9313951730D9F769E067
:100C84000027F02E0E9463000E94D4000895369A33
:100C940036990C944A0604B115B11F3F09F41EEFAE
:100CA4000E9455060895A3E0B1E00C912227C4E008
:100CB400D1E0C00FD21F18830395003218F000272B
:100CC4000E9466060C9308950F932227332700276A
:100CD4007727C4E0D1E01991210F301F739570324A
:100CE400D0F3220F331F220F331F220F331F132F72
:100CF40013BD0F9108950895EAE0FDE00491A4E284
:100D0400B1E00C93089506000E94C7020E947E067B
:100D140097FF0C9491060E9468050E94F70244FF15
:100D24000C948A0640FF0E94D80040FD0E946F0187
:0C0D34000E94FD050E9449060C948A06EE
:00000001FF
