:020000020000FC
:040000000C94240038
:040010000C945E05E9
:040018000C94A0059F
:04002C000C94F70534
:040034000C94E30540
:100044000C946B000FE514E00DBF1EBF0EE705BD59
:1000540003E003BD00E409BF08E400B9002701B9C7
:1000640008E90AB906E800BD0FE911E010BD09B9B5
:1000740000E607B907E806B9B89AC09ABB9A929AFB
:10008400939A949A8F9A0CEF04BB0EE30ABB78946C
:10009400EE2444278827002411242224239400E0FA
:1000A400302E602E02E0402E01E0702E0CE0502E27
:1000B4000E94CF060027ACEBB0E00C93CDEBD0E070
:1000C40008830C94340706B701FDFDCF05EA06BF8B
:1000D40008950F931F9351B15C7F583031F0503124
:1000E40021F0583111F0583219F40E94940017C0CD
:1000F400503519F40E94A50012C0503421F4FA942A
:1001040005EC06BF0CC0583519F40E94A50007C0C1
:10011400583319F405EA06BF02C004E006BF1F9174
:100124000F911895662361F0C0E6D0E00027CF0D4B
:10013400D01F088103B905E806BFF3946A9502C08D
:1001440004E906BF0895662321F413B104E906BF48
:1001540009C0613021F413B105E806BF03C013B12F
:1001640005EC06BFC0E7D0E00027CF0DD01F1883F1
:100174006A95F3940895002705BB62E0FF24C0E666
:10018400D0E000ED0993002708830E9465000E94D7
:10019400D60068E0FF2401EDC0E6D0E008830E94A9
:1001A40065000E94D600089506B700FDFDCF0895AE
:1001B40044FF0C94440142FF0C94EC00ABEBB0E020
:1001C4000C9103950A3F18F04D7FC09A0027ABEBC2
:1001D400B0E00C934F7E0E94BD000E9499067727E1
:1001E4000027A0E7B0E0A70FB01F0C91102F0F70ED
:1001F400107F1295733024F4E6EDF5E00C940D01B4
:10020400733021F0ECE0F6E00C940D01000F102F98
:100214001395ECEEF5E0AE2FBF2F2227372F330FC7
:10022400330FC0E8D0E0C30FD21F000FE00FF21F5E
:100234000E944501EA2FFB2F2227110FE10FF21F25
:100244000E9445017395763014F40C94F200A0E8F2
:10025400B0E0C8E9D0E0F89477270E946D017031CE
:10026400E0F3002714E0C10FD01F0E946D01743128
:10027400E0F3002718E0C11BD00B0E946D01783118
:10028400E0F37894089543FF0C944E01723011F01A
:10029400743011F4103041F041FF0C945A017E1572
:1002A40039F442FF0C945A01222733270C9463013A
:1002B400249131963491743021F443FD0C946301FC
:1002C40020682993399343FD0C946B0148600C9486
:1002D4006C01477F08950D9109937395089544FF28
:1002E4000C9444014F7E0E947A010E941F020895DB
:1002F40045FF0C94DE0147FD0C94F1010E94E502D8
:100304000394112704E0111631F4001621F40E941D
:1003140078020C9492010CE3001611F40024139457
:1003240046FD0C94AA01141479F4031469F40E9490
:100334007C02002411244064251441F44F7D2224BE
:10034400239440680C940C020C94F8010C9402025F
:10035400171451F40614C9F40E947C0211240024D9
:100364004F7B23940C94F801662079F4072D0A95A9
:100374001016B9F406E30016D9F008E30016C1F02C
:100384000AE30016A9F00C94D301062D02500016BE
:1003940079F00250001661F00250001649F00C94F6
:1003A400D30104E0001660F10E9478020C9402026A
:1003B4000E9482020C94020246FD0C94E5010E9404
:1003C40078020C94EC0147FF0C94EB014F770C94EA
:1003D400EC014F7B41FF0C940C020C9416020E941A
:1003E400780246FF0C94F8010C940202A0EBB0E0F2
:1003F4000D921D922D925D923D924C920C941E0290
:10040400A0EBB0E00D921D922D925D926D927C92C4
:100414000C941E02A0EBB0E00D921D922D925D9201
:100424003D924C920C941E02A0EBB0E03D924D9292
:100434005D925D926D927C92089577271127A0EBCF
:10044400B0E0A70FB11F0C910A3020F013950A50A9
:100454000C942602733020F4E6EDF5E00C9434029B
:10046400ECE0F6E0AE2FBF2F3327272F220F220F09
:10047400C8E9D0E0C20FD31F000FE00FF31F43FF02
:100484000C944A02703021F0743011F0103041F0B5
:1004940041FF0C9456027E1539F442FF0C94560227
:1004A400222733270C94630225913491723019F476
:1004B400277F0C946302753021F443FD0C9463028E
:1004C40020682993399343FD0C9471024860EA2F04
:1004D400FB2F110F2227E10FF21F0C944102477FDB
:1004E4007395763010F40C9420020895C09A002776
:1004F40003BF0895C0980BE103BF0EE10CBF08953C
:10050400C0980CE103BF0DE40CBF089563E000271D
:10051400C0E6D0E0CF0DD01F00ED09930F2D099355
:10052400012F08830E9465000E94D6000895012FC0
:100534001F70007F0295002321F0165F0A950C942A
:100544009D0208950027143640F41A3020F01A5002
:1005540003950C94A7020295102B0895C0E6D0E0F1
:1005640000ED099300E0099300E0099300E009938A
:1005740006E1099307E0099301E2099307E009936F
:1005840009E1088369E0FF240E9465000E94D60007
:1005940008950E94BD00A0E7B0E00C91003811F46A
:1005A4000E94B0020895A6EBB0E00D911C9121E0E9
:1005B4003327020F131F143028F0003B18F04E7F2E
:1005C4000E94E50208950027A6EBB0E00D930C937A
:1005D4000895FF0B090BEF0DCF0F1D0FDF07FF076A
:1005E4000F0BFF0FDF0F0000000000003190034BE2
:1005F40020A0722F3190514320A020E420A0034B6F
:10060400319251431180722F534B020851AB52ABBC
:1006140002E852E353E3020B53EB52EB000097FF63
:100624000C946303092F93700C7106950695102F93
:1006340016950170A8EBB0E02C91220F022B0C93BD
:10064400C9EBD0E0A991B881003039F41196C9EB17
:10065400D0E0A993B8830C9445030F3FA1F4A030D4
:1006640021F4B03011F40C944503B23024F40E9408
:1006740064030C943F030E94B203AA27BB27C9EB6F
:10068400D0E0A993B883133089F49030D1F091303D
:1006940029F49F7B0E94E0030C945503933089F462
:1006A40090640E94E00399270C946303113019F4B9
:1006B40093E00C946303123019F491E00C946303F7
:1006C40092E008950F930027ABEBB0E00C930F91E9
:1006D40040FD0C94890341FF0C94B10323E0E2161E
:1006E40018F4E3940C94B10325E0E21621F424E019
:1006F400E22E0C94B10324E0E21621F025E0E22E70
:100704000C94B103EE244D7FC09A0C94B10341FFC5
:100714000C949C03E39426E0E21630F423E0E21602
:10072400F1F4E3940C94B103EE244D7F0E94060788
:100734000C94B10345FD0C94AA03406247FF0E9448
:100744007C024F7300241124222423940C94B103BB
:1007540047FF0C94B0034F770C94B103406808959D
:100764000F930027ABEBB0E00C930F9140FD0C947A
:10077400CA0341FD0C94C3034260EE24C0980C9458
:10078400DF030EE705BD41604D71C09A0C94DF0391
:1007940041FF0C94D2030EE705BD4C710C94DF03AA
:1007A40045FD0C94DA0342604F71EE240C94DF0390
:1007B4004D71002411242224239408950F930027BB
:1007C400ABEBB0E00C930F9140FD0C94D00441FFCF
:1007D4000C944F050027A0E7B0E0AE0DB01F1C91AC
:1007E400E01631F41127FF240E9488020C944F056F
:1007F40001E0E016C9F40E94990296FD0C940A04E3
:10080400103019F41BE30C940E041A950C940E0486
:1008140013951C3308F011270E94A40201E0F02E66
:100824000E9488020C944F0502E0E016C9F40E946D
:10083400990296FD0C942604103019F417E10C94D7
:100844002A041A950C942A041395183108F01127D8
:100854000E94A40202E0F02E0E9488020C944F052C
:1008640003E0E016A9F496FD0C944004113019F449
:1008740017E00C9444041A950C944404139518300E
:1008840008F011E003E0F02E0E9488020C944F055A
:1008940004E0E01611F00C94AE04A0E7B0E0149666
:1008A4001D912D913C910E949902213061F02330D9
:1008B40051F0253041F0273031F0283021F020313B
:1008C40011F0223189F096FD0C947004113019F462
:1008D4001FE10C94A6041A950C94A60413951032E7
:1008E40098F111E00C94A6042230F9F496FD0C94CE
:1008F4008904113049F43370303019F41CE10C943C
:10090400A6041DE10C94A6041A950C94A604139550
:100914003370303029F41D31B8F011E00C94A60482
:100924001E3190F011E00C94A60496FD0C94A204E0
:10093400113019F41EE10C94A6041A950C94A60423
:1009440013951F3108F011E00E94A40204E0F02E78
:100954000E9488020C944F0505E0E01611F00C94F7
:100964004F05A0E7B0E015961C910E94990296FDF0
:100974000C94C404113019F41CE00C94C8041A95A6
:100984000C94C80413951D3008F011E00E94A402D1
:1009940005E0F02E0E9488020C944F0541FF0C9450
:1009A4004F0500E0E016B9F496FD0C94E3040AE068
:1009B400301620F402E3302E0C944F05301A0C94B8
:1009C4004F050AE0300E0CE3301610F40C944F057A
:1009D40033240C944F0501E0E016A9F496FD0C9421
:1009E400FC04442021F403E6402E0C944F054A9461
:1009F4000C944F05439404E6401610F40C944F05F0
:100A040044240C944F0502E0E016B9F496FD0C94CE
:100A1400150501E0501621F403E6502E0C944F0501
:100A24005A940C944F05539404E6501610F40C9405
:100A34004F0501E0502E0C944F0504E0E016B9F484
:100A440096FD0C942F050AE0601620F402E3602E54
:100A54000C944F05601A0C944F050AE0600E0CE3E9
:100A6400601610F40C944F0566240C944F0505E0B1
:100A7400E01699F496FD0C944805772021F403E6DA
:100A8400702E0C944F057A940C944F05739404E6DD
:100A9400701610F40C944F057724089509E00EBDE8
:100AA4000FE910E00ABD1BBD09B7006109BFCC24E2
:100AB400089500270EBD08950F931F930FB70F934A
:100AC4008395803818F04B7F0C946905446040FF8F
:100AD4000C94750541FD0C947505843F48F08827F6
:100AE40040610C947A05082F0E730E3309F44061AB
:100AF40000B30C7100689370902B0F910FBF1F917E
:100B04000F91189506E0D394D01608F0DD241D2D1E
:100B1400110F0027C8E9D0E0C10FD01F9990888039
:100B2400145F0027C8E9D0E0C10FD01FB990A88096
:100B340005BBD99ACC240E9450050895EF93FF93E6
:100B44000F931F930FB70F93C5FC12C0C0FC0EC0C8
:100B540087FEDA9887FCDA9AA7FEDD98A7FCDD9A6F
:100B6400991C881CBB1CAA1CDB981AC0DB9A18C0F1
:100B7400C1FC08C0C0FC04C0DB98DA98DD9810C042
:100B8400DC9A0EC0C0FC02C0DC980AC0D9980027C9
:100B9400E8EBFBE0ED0DF01F049105BB0E945B0543
:100BA400C3940F910FBF1F910F91FF91EF9118956F
:100BB400089508950408102040805D9BFECF0CB971
:100BC40008950F931F930FB70F93773048F41127AD
:100BD400A0E7B0E0A70FB11F0C910E94DF05739549
:100BE4000F910FBF1F910F9118952F930F931F9380
:100BF400AF93BF93CF93DF930FB70F930CB10E94C2
:100C0400DF052227ACEBB0E01C91CEEBD0E0C10FA6
:100C1400D21F088313951F731C930F910FBFDF918D
:100C2400CF91BF91AF911F910F912F911895ACEB7C
:100C3400B0E01C91CDEBD0E00881202F312F321B86
:100C44003F73393010F40C944E063327AEEBB0E00A
:100C5400A00FB31F2D912C3C29F003950F7308832B
:100C64000C941906CEEFD0E011273D913993230F50
:100C740013951730D0F33C91231739F003950F7374
:100C8400CDEBD0E008830C941906075F0F73CDEB0E
:100C9400D0E008830E944F0608951127A0E6B0E033
:100CA400CEEFD0E000ED0D9300270D9309910D9345
:100CB40013951730D9F769E00027F02E0E946500DC
:100CC4000E94D6000895369A36990C94660604B1AB
:100CD40015B11F3F09F41EEF0E9471060895A5E0A7
:100CE400B1E00C912227C6E0D1E0C00FD21F1883D7
:100CF4000395003218F000270E9482060C93089591
:100D04000F932227332700277727C6E0D1E01991D4
:100D1400210F301F73957032D0F3220F331F220F2F
:100D2400331F220F331F132F13BD0F910895A0E714
:100D3400B0E012960C91013019F50E91003001F5D6
:100D44000E91003069F40E94CA0617FF07C011957E
:100D54000E94A402FF240E94880212C0426010C0B4
:100D640041FF0EC0102F0E949902012F0E94CA0653
:100D74001395101729F44D7F11E0FF240E94880277
:100D84000895ECE9FDE00491A6E2B1E00C93089526
:100D9400A6E2B1E01C910895060000E0A02FBB2755
:100DA4000E94F0061C2FA05C0E94F0062C2FA05C71
:100DB4000E94F0063C2F121781F4231771F400FFF0
:100DC40003C01C3350F402C0143638F40E94F706F2
:100DD4000395053018F30E94FE060895E199FECFAD
:100DE400BFBBAEBBE09ACDB308952227E7E2F1E0A2
:100DF400E00FF21F10830895E7E2F1E04190319093
:100E04007190619050800895AA27BB27002711276D
:100E1400103031F01A9520E43327A20FB31FF8CF16
:100E2400C42D0E942C071196C32D0E942C071196E5
:100E3400C72D0E942C071196C62D0E942C071196CF
:100E4400C52D0E942C070395102FAA27BB2703301A
:100E5400F8F20895E199FECFBFBBAEBBCDBBE29AD9
:100E6400E19A08950E94CB020E94C3060E94E50203
:100E740097FF0C9441070E9484050E94110344FFCC
:100E84000C943A0740FF0E94DA0040FD0E94710171
:0C0E94000E9419060E9465060C943A07A3
:00000001FF
