:020000020000FC
:040000000C94240038
:040010000C94440503
:040018000C948605B9
:04002C000C94DD054E
:040034000C94C9055A
:100044000C946B000FE514E00DBF1EBF0EE705BD59
:1000540003E003BD00E409BF08E400B9002701B9C7
:1000640008E90AB906E800BD0FE911E010BD09B9B5
:1000740000E607B907E806B9B89AC09ABB9A929AFB
:10008400939A949A8F9A0CEF04BB0EE30ABB78946C
:10009400EE2444278827002411242224239400E0FA
:1000A400302E602E02E0402E01E0702E0CE0502E27
:1000B4000E94B5060027AAEBB0E00C93CBEBD0E08E
:1000C40008830C94B60606B701FDFDCF05EA06BF0A
:1000D40008950F931F9351B15C7F583031F0503124
:1000E40021F0583111F0583219F40E94940017C0CD
:1000F400503519F40E94A50012C0503421F4FA942A
:1001040005EC06BF0CC0583519F40E94A50007C0C1
:10011400583319F405EA06BF02C004E006BF1F9174
:100124000F911895662361F0C0E6D0E00027CF0D4B
:10013400D01F088103B905E806BFF3946A9502C08D
:1001440004E906BF0895662321F413B104E906BF48
:1001540009C0613021F413B105E806BF03C013B12F
:1001640005EC06BFC0E7D0E00027CF0DD01F1883F1
:100174006A95F3940895002705BB62E0FF24C0E666
:10018400D0E000ED0993002708830E9465000E94D7
:10019400D60068E0FF2401EDC0E6D0E008830E94A9
:1001A40065000E94D600089506B700FDFDCF0895AE
:1001B40044FF0C94440142FF0C94EC00A9EBB0E022
:1001C4000C9103950A3F18F04D7FC09A0027A9EBC4
:1001D400B0E00C934F7E0E94BD000E947F067727FB
:1001E4000027A0E7B0E0A70FB01F0C91102F0F70ED
:1001F400107F1295733024F4E6EAF5E00C940D01B7
:10020400733021F0ECEDF5E00C940D01000F102F8C
:100214001395ECEBF5E0AE2FBF2F2227372F330FCA
:10022400330FC0E8D0E0C30FD21F000FE00FF21F5E
:100234000E944501EA2FFB2F2227110FE10FF21F25
:100244000E9445017395763014F40C94F200A0E8F2
:10025400B0E0C8E9D0E0F89477270E946D017031CE
:10026400E0F3002714E0C10FD01F0E946D01743128
:10027400E0F3002718E0C11BD00B0E946D01783118
:10028400E0F37894089543FF0C944E01723011F01A
:10029400743011F4103041F041FF0C945A017E1572
:1002A40039F442FF0C945A01222733270C9463013A
:1002B400249131963491743021F443FD0C946301FC
:1002C40020682993399343FD0C946B0148600C9486
:1002D4006C01477F08950D9109937395089544FF28
:1002E4000C9444014F7E0E947A010E941D020895DD
:1002F40045FF0C94DC0147FD0C94EF010394112796
:1003040004E0111631F4001621F40E9476020C94D4
:1003140090010CE3001611F40024139446FD0C9490
:10032400A801141479F4031469F40E947A020024D5
:1003340011244064251441F44F7D22242394406801
:100344000C940A020C94F6010C940002171451F454
:100354000614C9F40E947A02112400244F7B2394CA
:100364000C94F601662079F4072D0A951016B9F459
:1003740006E30016D9F008E30016C1F00AE30016FC
:10038400A9F00C94D101062D0250001679F0025008
:10039400001661F00250001649F00C94D10104E0FB
:1003A400001660F10E9476020C9400020E94800202
:1003B4000C94000246FD0C94E3010E9476020C9416
:1003C400EA0147FF0C94E9014F770C94EA014F7B53
:1003D40041FF0C940A020C9414020E94760246FF18
:1003E4000C94F6010C940002A0EBB0E00D921D9267
:1003F4002D925D923D924C920C941C02A0EBB0E0C5
:100404000D921D922D925D926D927C920C941C0221
:10041400A0EBB0E00D921D922D925D923D924C9214
:100424000C941C02A0EBB0E03D924D925D925D9263
:100434006D927C92089577271127A0EBB0E0A70F67
:10044400B11F0C910A3020F013950A500C94240229
:10045400733020F4E6EAF5E00C943202ECEDF5E0BA
:10046400AE2FBF2F3327272F220F220FC8E9D0E04A
:10047400C20FD31F000FE00FF31F43FF0C94480279
:10048400703021F0743011F0103041F041FF0C94C1
:1004940054027E1539F442FF0C9454022227332768
:1004A4000C94610225913491723019F4277F0C94D5
:1004B4006102753021F443FD0C9461022068299394
:1004C400399343FD0C946F024860EA2FFB2F110F00
:1004D4002227E10FF21F0C943F02477F7395763079
:1004E40010F40C941E020895C09A002703BF0895C7
:1004F400C0980BE103BF0EE10CBF0895C0980CE156
:1005040003BF0DE40CBF089563E00027C0E6D0E00C
:10051400CF0DD01F00ED09930F2D0993012F0883F0
:100524000E9465000E94D6000895012F1F70007F6D
:100534000295002321F0165F0A950C949B020895FE
:100544000027143640F41A3020F01A5003950C9406
:10055400A5020295102B0895C0E6D0E000ED0993A2
:1005640000E0099300E0099300E0099306E1099390
:1005740007E0099301E2099307E0099309E108837D
:1005840069E0FF240E9465000E94D60008950E943D
:10059400BD00A0E7B0E00C91003811F40E94AE0257
:1005A4000895FF0B090BEF0DCF0F1D0FDF07FF079A
:1005B4000F0BFF0FDF0F0000000000003190034B12
:1005C40020A0722F3190514320A020E420A0034B9F
:1005D400319251431180722F534B020851AB52ABED
:1005E40002E852E353E3020B53EB52EB000097FF94
:1005F4000C944B03092F93700C7106950695102FDC
:1006040016950170A6EBB0E02C91220F022B0C93EF
:10061400C7EBD0E0A991B881003039F41196C7EB4B
:10062400D0E0A993B8830C942D030F3FA1F4A0301C
:1006340021F4B03011F40C942D03B23024F40E9450
:100644004C030C9427030E949803AA27BB27C7EBEB
:10065400D0E0A993B883133089F49030D1F091306D
:1006640029F49F7B0E94C6030C943D03933089F4C4
:1006740090640E94C60399270C944B03113019F41B
:1006840093E00C944B03123019F491E00C944B0357
:1006940092E008950F930027A9EBB0E00C930F911B
:1006A40040FD0C94710341FF0C94970323E0E21680
:1006B40018F4E3940C94970325E0E21621F424E063
:1006C400E22E0C94970324E0E21621F025E0E22EBA
:1006D4000C949703EE244D7FC09A0C94970341FF2A
:1006E4000C948203E39426E0E21630F423E0E2164D
:1006F400E1F4E3940C949703EE244D7F0C94970358
:1007040045FD0C949003406247FF0E947A024F73A8
:1007140000241124222423940C94970347FF0C945F
:1007240096034F770C949703406808950F9300271E
:10073400A9EBB0E00C930F9140FD0C94B00341FD84
:100744000C94A9034260EE24C0980C94C5030EE7F0
:1007540005BD41604D71C09A0C94C50341FF0C94D2
:10076400B8030EE705BD4C710C94C50345FD0C940C
:10077400C00342604F71EE240C94C5034D710024F4
:1007840011242224239408950F930027A9EBB0E0A9
:100794000C930F9140FD0C94B60441FF0C94350565
:1007A4000027A0E7B0E0AE0DB01F1C91E01631F4B5
:1007B4001127FF240E9486020C94350501E0E016FF
:1007C400C9F40E94970296FD0C94F003103019F4BA
:1007D4001BE30C94F4031A950C94F40313951C3343
:1007E40008F011270E94A20201E0F02E0E94860266
:1007F4000C94350502E0E016C9F40E94970296FDB8
:100804000C940C04103019F417E10C9410041A958C
:100814000C9410041395183108F011270E94A202B9
:1008240002E0F02E0E9486020C94350503E0E016E7
:10083400A9F496FD0C942604113019F417E00C94D5
:100844002A041A950C942A041395183008F011E020
:1008540003E0F02E0E9486020C94350504E0E016B5
:1008640011F00C949404A0E7B0E014961D912D911E
:100874003C910E949702213061F0233051F02530E1
:1008840041F0273031F0283021F0203111F02231AD
:1008940089F096FD0C945604113019F41FE10C9460
:1008A4008C041A950C948C041395103298F111E071
:1008B4000C948C042230F9F496FD0C946F041130DE
:1008C40049F43370303019F41CE10C948C041DE1AC
:1008D4000C948C041A950C948C041395337030305A
:1008E40029F41D31B8F011E00C948C041E3190F001
:1008F40011E00C948C0496FD0C948804113019F4C6
:100904001EE10C948C041A950C948C0413951F31DD
:1009140008F011E00E94A20204E0F02E0E94860278
:100924000C94350505E0E01611F00C943505A0E7AC
:10093400B0E015961C910E94970296FD0C94AA04AF
:10094400113019F41CE00C94AE041A950C94AE0406
:1009540013951D3008F011E00E94A20205E0F02E6C
:100964000E9486020C94350541FF0C94350500E085
:10097400E016B9F496FD0C94C9040AE0301620F48C
:1009840002E3302E0C943505301A0C9435050AE038
:10099400300E0CE3301610F40C94350533240C940B
:1009A400350501E0E016A9F496FD0C94E204442018
:1009B40021F403E6402E0C9435054A940C94350535
:1009C400439404E6401610F40C94350544240C9426
:1009D400350502E0E016B9F496FD0C94FB0401E041
:1009E400501621F403E6502E0C9435055A940C94B9
:1009F4003505539404E6501610F40C94350501E0C3
:100A0400502E0C94350504E0E016B9F496FD0C94D0
:100A140015050AE0601620F402E3602E0C943505F7
:100A2400601A0C9435050AE0600E0CE3601610F4AD
:100A34000C94350566240C94350505E0E01699F40C
:100A440096FD0C942E05772021F403E6702E0C9469
:100A540035057A940C943505739404E6701610F4F5
:100A64000C9435057724089509E00EBD0FE910E0D4
:100A74000ABD1BBD09B7006109BFCC240895002736
:100A84000EBD08950F931F930FB70F93839580386E
:100A940018F04B7F0C944F05446040FF0C945B05A9
:100AA40041FD0C945B05843F48F0882740610C9419
:100AB4006005082F0E730E3309F4406100B30C7106
:100AC40000689370902B0F910FBF1F910F91189591
:100AD40006E0D394D01608F0DD241D2D110F002755
:100AE400C8E9D0E0C10FD01F99908880145F002717
:100AF400C8E9D0E0C10FD01FB990A88005BBD99A2E
:100B0400CC240E9436050895EF93FF930F931F930F
:100B14000FB70F93C5FC12C0C0FC0EC087FEDA9855
:100B240087FCDA9AA7FEDD98A7FCDD9A991C881C3D
:100B3400BB1CAA1CDB981AC0DB9A18C0C1FC08C0F5
:100B4400C0FC04C0DB98DA98DD9810C0DC9A0EC0B3
:100B5400C0FC02C0DC980AC0D9980027E4E8FBE096
:100B6400ED0DF01F049105BB0E944105C3940F9144
:100B74000FBF1F910F91FF91EF911895089508955C
:100B84000408102040805D9BFECF0CB908950F939C
:100B94001F930FB70F93773048F41127A0E7B0E005
:100BA400A70FB11F0C910E94C50573950F910FBF3C
:100BB4001F910F9118952F930F931F93AF93BF938A
:100BC400CF93DF930FB70F930CB10E94C505222773
:100BD400AAEBB0E01C91CCEBD0E0C10FD21F08838C
:100BE40013951F731C930F910FBFDF91CF91BF918A
:100BF400AF911F910F912F911895AAEBB0E01C9122
:100C0400CBEBD0E00881202F312F321B3F733930DA
:100C140010F40C9434063327ACEBB0E0A00FB31FF0
:100C24002D912C3C29F003950F7308830C94FF0538
:100C3400CCEFD0E011273D913993230F1395173052
:100C4400D0F33C91231739F003950F73CBEBD0E02D
:100C540008830C94FF05075F0F73CBEBD0E0088388
:100C64000E94350608951127A0E6B0E0CCEFD0E04D
:100C740000ED0D9300270D9309910D9313951730F3
:100C8400D9F769E00027F02E0E9465000E94D60083
:100C94000895369A36990C944C0604B115B11F3F49
:100CA40009F41EEF0E9457060895A3E0B1E00C91E9
:100CB4002227C4E0D1E0C00FD21F1883039500326D
:100CC40018F000270E9468060C9308950F932227BA
:100CD400332700277727C4E0D1E01991210F301F73
:100CE40073957032D0F3220F331F220F331F220F5C
:100CF400331F132F13BD0F910895A0E7B0E0129690
:100D04000C91013019F50E91003001F50E9100306F
:100D140069F40E94B00617FF07C011950E94A20251
:100D2400FF240E94860212C0426010C041FF0EC020
:100D3400102F0E949702012F0E94B00613951017DE
:100D440029F44D7F11E0FF240E9486020895E8E60D
:100D5400FDE00491A4E2B1E00C930895A4E2B1E0B3
:100D64001C910895060008950E94C9020E94A906D4
:100D740097FF0C94C1060E946A050E94F90244FF81
:100D84000C94BA0640FF0E94DA0040FD0E947101F3
:0C0D94000E94FF050E944B060C94BA065A
:00000001FF
