:020000020000FC
:040000000C94240038
:040010000C94400507
:040018000C948205BD
:04002C000C94D90552
:040034000C94C5055E
:100044000C9469000FE514E00DBF1EBF0EE705BD5B
:1000540003E003BD00E409BF08E400B9002701B9C7
:1000640008E90AB906E800BD0FE911E010BD09B9B5
:1000740000E607B907E806B9B89AC09ABB9A929AFB
:10008400939A949A8F9A0CEF04BB0EE30ABB78946C
:10009400EE2444278827002411242224239400E0FA
:1000A400302E602E02E0402E01E0702E0CE0502E27
:1000B4000027AAEBB0E00C93CBEBD0E008830C94C0
:1000C4007B0606B701FDFDCF05EA06BF08950F9331
:1000D4001F9351B15C7F583031F0503121F05831C9
:1000E40011F0583219F40E94920017C0503519F4D7
:1000F4000E94A30012C0503421F4FA9405EC06BF08
:100104000CC0583519F40E94A30007C0583319F4E1
:1001140005EA06BF02C004E006BF1F910F911895BF
:10012400662361F0C0E6D0E00027CF0DD01F088120
:1001340003B905E806BFF3946A9502C004E906BF53
:100144000895662321F413B104E906BF09C06130A0
:1001540021F413B105E806BF03C013B105EC06BFD3
:10016400C0E7D0E00027CF0DD01F18836A95F39421
:100174000895002705BB62E0FF24C0E6D0E000ED4F
:100184000993002708830E9463000E94D40068E05A
:10019400FF2401EDC0E6D0E008830E9463000E94C2
:1001A400D400089506B700FDFDCF089544FF0C94D4
:1001B400400142FF0C94EA00A9EBB0E00C910395D6
:1001C4000A3F18F04D7FC09A0027A9EBB0E00C93CA
:1001D4004F7E0E94BB0077270027A0E7B0E0A70F5F
:1001E400B01F0C91102F0F70107F1295733024F4F0
:1001F400EEE9F5E00C940901733021F0E4EDF5E04B
:100204000C940901000F102F1395E4EBF5E0AE2FC9
:10021400BF2F2227372F330F330FC0E8D0E0C30F8F
:10022400D21F000FE00FF21F0E944101EA2FFB2FA3
:100234002227110FE10FF21F0E94410173957630BE
:1002440014F40C94EE00A0E8B0E0C8E9D0E0F8940F
:1002540077270E9469017031E0F3002714E0C10F91
:10026400D01F0E9469017431E0F3002718E0C11B1C
:10027400D00B0E9469017831E0F37894089543FF2C
:100284000C944A01723011F0743011F4103041F0C2
:1002940041FF0C9456017E1539F442FF0C9456012B
:1002A400222733270C945F012491319634917430C2
:1002B40021F443FD0C945F0120682993399343FD95
:1002C4000C94670148600C946801477F08950D9170
:1002D40009937395089544FF0C9440014F7E0E9446
:1002E40076010E941902089545FF0C94D80147FD38
:1002F4000C94EB010394112704E0111631F4001659
:1003040021F40E9472020C948C010CE3001611F487
:100314000024139446FD0C94A401141479F40314DA
:1003240069F40E947602002411244064251441F4E7
:100334004F7D2224239440680C9406020C94F2010D
:100344000C94FC01171451F40614C9F40E947602AB
:10035400112400244F7B23940C94F201662079F439
:10036400072D0A951016B9F406E30016D9F008E330
:100374000016C1F00AE30016A9F00C94CD01062D75
:100384000250001679F00250001661F00250001677
:1003940049F00C94CD0104E0001660F10E94720251
:1003A4000C94FC010E947C020C94FC0146FD0C940C
:1003B400DF010E9472020C94E60147FF0C94E501F0
:1003C4004F770C94E6014F7B41FF0C9406020C948A
:1003D40010020E94720246FF0C94F2010C94FC017C
:1003E400A0EBB0E00D921D922D925D923D924C9245
:1003F4000C941802A0EBB0E00D921D922D925D9228
:100404006D927C920C941802A0EBB0E00D921D92B8
:100414002D925D923D924C920C941802A0EBB0E0A8
:100424003D924D925D925D926D927C9208957727F4
:100434001127A0EBB0E0A70FB11F0C910A3020F0F8
:1004440013950A500C942002733020F4EEE9F5E081
:100454000C942E02E4EDF5E0AE2FBF2F3327272FA7
:10046400220F220FC8E9D0E0C20FD31F000FE00F04
:10047400F31F43FF0C944402703021F0743011F0E8
:10048400103041F041FF0C9450027E1539F442FFC4
:100494000C945002222733270C945D022591349149
:1004A400723019F4277F0C945D02753021F443FDFA
:1004B4000C945D0220682993399343FD0C946B02DC
:1004C4004860EA2FFB2F110F2227E10FF21F0C9433
:1004D4003B02477F7395763010F40C941A0208950A
:1004E400C09A002703BF0895C0980BE103BF0EE133
:1004F4000CBF0895C0980CE103BF0DE40CBF089530
:1005040063E00027C0E6D0E0CF0DD01F00ED0993D3
:100514000F2D0993012F08830E9463000E94D400C9
:100524000895012F1F70007F0295002321F0165FAC
:100534000A950C94970208950027143640F41A3053
:1005440020F01A5003950C94A1020295102B0895E3
:10055400C0E6D0E000ED099300E0099300E00993C0
:1005640000E0099306E1099307E0099301E2099386
:1005740007E0099309E1088369E0FF240E9463000E
:100584000E94D40008950E94BB00A0E7B0E00C9143
:10059400003811F40E94AA020895FF0B090BEF0D15
:1005A400CF0F1D0FDF07FF070F0BFF0FDF0F00003B
:1005B400000000003190034B20A0722F3190514372
:1005C40020A020E420A0034B319251431180722FCC
:1005D400534B020851AB52AB02E852E353E3020B14
:1005E40053EB52EB000097FF0C944703092F9370D1
:1005F4000C7106950695102F16950170A6EBB0E0C8
:100604002C91220F022B0C93C7EBD0E0A991B88157
:10061400003039F41196C7EBD0E0A993B8830C9459
:1006240029030F3FA1F4A03021F4B03011F40C944D
:100634002903B23024F40E9448030C9423030E943B
:100644009403AA27BB27C7EBD0E0A993B883133040
:1006540089F49030D1F0913029F49F7B0E94C20339
:100664000C943903933089F490640E94C20399274F
:100674000C944703113019F493E00C94470312309F
:1006840019F491E00C94470392E008950F93002726
:10069400A9EBB0E00C930F9140FD0C946D0341FF66
:1006A4000C94930323E0E21618F4E3940C9493035C
:1006B40025E0E21621F424E0E22E0C94930324E0D6
:1006C400E21621F025E0E22E0C949303EE244D7FF4
:1006D400C09A0C94930341FF0C947E03E39426E0A8
:1006E400E21630F423E0E216E1F4E3940C9493036D
:1006F400EE244D7F0C94930345FD0C948C034062CF
:1007040047FF0E9476024F7300241124222423946D
:100714000C94930347FF0C9492034F770C94930328
:10072400406808950F930027A9EBB0E00C930F9154
:1007340040FD0C94AC0341FD0C94A5034260EE24EF
:10074400C0980C94C1030EE705BD41604D71C09A79
:100754000C94C10341FF0C94B4030EE705BD4C7126
:100764000C94C10345FD0C94BC0342604F71EE240C
:100774000C94C1034D710024112422242394089560
:100784000F930027A9EBB0E00C930F9140FD0C945C
:10079400B20441FF0C9431050027A0E7B0E0AE0D90
:1007A400B01F1C91E01631F41127FF240E9482022D
:1007B4000C94310501E0E016C9F40E94930296FD01
:1007C4000C94EC03103019F41BE30C94F0031A9509
:1007D4000C94F00313951C3308F011270E949E0219
:1007E40001E0F02E0E9482020C94310502E0E01632
:1007F400C9F40E94930296FD0C940804103019F475
:1008040017E10C940C041A950C940C0413951831EC
:1008140008F011270E949E0202E0F02E0E9482023C
:100824000C94310503E0E016A9F496FD0C9422041F
:10083400113019F417E00C9426041A950C9426042C
:100844001395183008F011E003E0F02E0E948202A4
:100854000C94310504E0E01611F00C949004A0E728
:10086400B0E014961D912D913C910E949302213089
:1008740061F0233051F0253041F0273031F0283039
:1008840021F0203111F0223189F096FD0C945204AC
:10089400113019F41FE10C9488041A950C948804FF
:1008A4001395103298F111E00C9488042230F9F475
:1008B40096FD0C946B04113049F43370303019F404
:1008C4001CE10C9488041DE10C9488041A950C9482
:1008D400880413953370303029F41D31B8F011E0D9
:1008E4000C9488041E3190F011E00C94880496FD59
:1008F4000C948404113019F41EE10C9488041A95A4
:100904000C94880413951F3108F011E00E949E0294
:1009140004E0F02E0E9482020C94310505E0E016FA
:1009240011F00C943105A0E7B0E015961C910E94DB
:10093400930296FD0C94A604113019F41CE00C9457
:10094400AA041A950C94AA0413951D3008F011E01A
:100954000E949E0205E0F02E0E9482020C94310552
:1009640041FF0C94310500E0E016B9F496FD0C94B7
:10097400C5040AE0301620F402E3302E0C9431054D
:10098400301A0C9431050AE0300E0CE3301610F4E2
:100994000C94310533240C94310501E0E016A9F4DC
:1009A40096FD0C94DE04442021F403E6402E0C94BE
:1009B40031054A940C943105439404E6401610F42E
:1009C4000C94310544240C94310502E0E016B9F48A
:1009D40096FD0C94F70401E0501621F403E6502E22
:1009E4000C9431055A940C943105539404E6501632
:1009F40010F40C94310501E0502E0C94310504E000
:100A0400E016B9F496FD0C9411050AE0601620F482
:100A140002E3602E0C943105601A0C9431050AE04F
:100A2400600E0CE3601610F40C94310566240C94EB
:100A3400310505E0E01699F496FD0C942A0577201B
:100A440021F403E6702E0C9431057A940C9431054C
:100A5400739404E6701610F40C9431057724089509
:100A640009E00EBD0FE910E00ABD1BBD09B7006126
:100A740009BFCC24089500270EBD08950F931F933A
:100A84000FB70F938395803818F04B7F0C944B0568
:100A9400446040FF0C94570541FD0C945705843F76
:100AA40048F0882740610C945C05082F0E730E33C0
:100AB40009F4406100B30C7100689370902B0F919E
:100AC4000FBF1F910F91189506E0D394D01608F02C
:100AD400DD241D2D110F0027C8E9D0E0C10FD01F60
:100AE40099908880145F0027C8E9D0E0C10FD01F17
:100AF400B990A88005BBD99ACC240E9432050895E8
:100B0400EF93FF930F931F930FB70F93C5FC12C07E
:100B1400C0FC0EC087FEDA9887FCDA9AA7FEDD983F
:100B2400A7FCDD9A991C881CBB1CAA1CDB981AC064
:100B3400DB9A18C0C1FC08C0C0FC04C0DB98DA987A
:100B4400DD9810C0DC9A0EC0C0FC02C0DC980AC05C
:100B5400D9980027ECE7FBE0ED0DF01F049105BBED
:100B64000E943D05C3940F910FBF1F910F91FF91F8
:100B7400EF911895089508950408102040805D9B16
:100B8400FECF0CB908950F931F930FB70F937730CF
:100B940048F41127A0E7B0E0A70FB11F0C910E9401
:100BA400C10573950F910FBF1F910F9118952F9346
:100BB4000F931F93AF93BF93CF93DF930FB70F930D
:100BC4000CB10E94C1052227AAEBB0E01C91CCEB2A
:100BD400D0E0C10FD21F088313951F731C930F918C
:100BE4000FBFDF91CF91BF91AF911F910F912F91C3
:100BF4001895AAEBB0E01C91CBEBD0E00881202F34
:100C0400312F321B3F73393010F40C9430063327E4
:100C1400ACEBB0E0A00FB31F2D912C3C29F0039551
:100C24000F7308830C94FB05CCEFD0E011273D91A2
:100C34003993230F13951730D0F33C91231739F0D0
:100C440003950F73CBEBD0E008830C94FB05075F8F
:100C54000F73CBEBD0E008830E943106089511276F
:100C6400A0E6B0E0CCEFD0E000ED0D9300270D93AB
:100C740009910D9313951730D9F769E00027F02EE9
:100C84000E9463000E94D4000895369A36990C9409
:100C9400480604B115B11F3F09F41EEF0E94530624
:100CA4000895A3E0B1E00C912227C4E0D1E0C00F85
:100CB400D21F18830395003218F000270E9464069F
:100CC4000C9308950F932227332700277727C4E036
:100CD400D1E01991210F301F73957032D0F3220F98
:100CE400331F220F331F220F331F132F13BD0F91F6
:100CF40008950E94C50297FF0C9484060E9466051D
:100D04000E94F50244FF0C947D0640FF0E94D80027
:100D140040FD0E946D010E94FB050E9447060C9451
:020D24007D064A
:00000001FF
